{
  "contractName": "TaskContract",
  "abi": [
    {
      "anonymous": false,
      "inputs": [
        {
          "indexed": false,
          "internalType": "address",
          "name": "recipient",
          "type": "address"
        },
        {
          "indexed": false,
          "internalType": "uint256",
          "name": "taskId",
          "type": "uint256"
        }
      ],
      "name": "AddTask",
      "type": "event"
    },
    {
      "anonymous": false,
      "inputs": [
        {
          "indexed": false,
          "internalType": "uint256",
          "name": "taskId",
          "type": "uint256"
        },
        {
          "indexed": false,
          "internalType": "bool",
          "name": "isDeleted",
          "type": "bool"
        }
      ],
      "name": "DeleteTask",
      "type": "event"
    },
    {
      "inputs": [
        {
          "internalType": "string",
          "name": "taskText",
          "type": "string"
        },
        {
          "internalType": "bool",
          "name": "isDeleted",
          "type": "bool"
        }
      ],
      "name": "addTask",
      "outputs": [],
      "stateMutability": "nonpayable",
      "type": "function"
    },
    {
      "inputs": [],
      "name": "getMyTasks",
      "outputs": [
        {
          "components": [
            {
              "internalType": "uint256",
              "name": "id",
              "type": "uint256"
            },
            {
              "internalType": "string",
              "name": "taskText",
              "type": "string"
            },
            {
              "internalType": "bool",
              "name": "isDeleted",
              "type": "bool"
            }
          ],
          "internalType": "struct TaskContract.Task[]",
          "name": "",
          "type": "tuple[]"
        }
      ],
      "stateMutability": "view",
      "type": "function",
      "constant": true
    },
    {
      "inputs": [
        {
          "internalType": "uint256",
          "name": "taskId",
          "type": "uint256"
        },
        {
          "internalType": "bool",
          "name": "isDeleted",
          "type": "bool"
        }
      ],
      "name": "deleteTask",
      "outputs": [],
      "stateMutability": "nonpayable",
      "type": "function"
    }
  ],
  "bytecode": "0x608060405234801561001057600080fd5b50610e7c806100206000396000f3fe608060405234801561001057600080fd5b506004361061005e576000357c01000000000000000000000000000000000000000000000000000000009004806320df4581146100635780636e13f8181461007f578063aaba29071461009d575b600080fd5b61007d60048036038101906100789190610768565b6100b9565b005b6100876101dc565b604051610094919061097d565b60405180910390f35b6100b760048036038101906100b291906109cb565b6104d2565b005b6000808054905090506000604051806060016040528083815260200185815260200184151581525090806001815401808255809150506001900390600052602060002090600302016000909190919091506000820151816000015560208201518160010190816101299190610c1d565b5060408201518160020160006101000a81548160ff0219169083151502179055505050336001600083815260200190815260200160002060006101000a81548173ffffffffffffffffffffffffffffffffffffffff021916908373ffffffffffffffffffffffffffffffffffffffff1602179055507f1f54e1ba1832d428fbd7e7792beaf62b1fc5a382c207ffd614209c1413e94fda33826040516101cf929190610d3f565b60405180910390a1505050565b60606000808054905067ffffffffffffffff8111156101fe576101fd610605565b5b60405190808252806020026020018201604052801561023757816020015b6102246105b3565b81526020019060019003908161021c5790505b5090506000805b600080549050811015610418573373ffffffffffffffffffffffffffffffffffffffff166001600083815260200190815260200160002060009054906101000a900473ffffffffffffffffffffffffffffffffffffffff1673ffffffffffffffffffffffffffffffffffffffff161480156102ef575060001515600082815481106102cc576102cb610d68565b5b906000526020600020906003020160020160009054906101000a900460ff161515145b15610405576000818154811061030857610307610d68565b5b90600052602060002090600302016040518060600160405290816000820154815260200160018201805461033b90610a3a565b80601f016020809104026020016040519081016040528092919081815260200182805461036790610a3a565b80156103b45780601f10610389576101008083540402835291602001916103b4565b820191906000526020600020905b81548152906001019060200180831161039757829003601f168201915b505050505081526020016002820160009054906101000a900460ff1615151515815250508383815181106103eb576103ea610d68565b5b6020026020010181905250818061040190610dc6565b9250505b808061041090610dc6565b91505061023e565b5060008167ffffffffffffffff81111561043557610434610605565b5b60405190808252806020026020018201604052801561046e57816020015b61045b6105b3565b8152602001906001900390816104535790505b50905060005b828110156104c85783818151811061048f5761048e610d68565b5b60200260200101518282815181106104aa576104a9610d68565b5b602002602001018190525080806104c090610dc6565b915050610474565b5080935050505090565b3373ffffffffffffffffffffffffffffffffffffffff166001600084815260200190815260200160002060009054906101000a900473ffffffffffffffffffffffffffffffffffffffff1673ffffffffffffffffffffffffffffffffffffffff16036105af57806000838154811061054d5761054c610d68565b5b906000526020600020906003020160020160006101000a81548160ff0219169083151502179055507ff88a35c3d2016c409a46570b994a17b408dbc83c14a03f521512d50b85386d0682826040516105a6929190610e1d565b60405180910390a15b5050565b604051806060016040528060008152602001606081526020016000151581525090565b6000604051905090565b600080fd5b600080fd5b600080fd5b600080fd5b6000601f19601f8301169050919050565b7f4e487b7100000000000000000000000000000000000000000000000000000000600052604160045260246000fd5b61063d826105f4565b810181811067ffffffffffffffff8211171561065c5761065b610605565b5b80604052505050565b600061066f6105d6565b905061067b8282610634565b919050565b600067ffffffffffffffff82111561069b5761069a610605565b5b6106a4826105f4565b9050602081019050919050565b82818337600083830152505050565b60006106d36106ce84610680565b610665565b9050828152602081018484840111156106ef576106ee6105ef565b5b6106fa8482856106b1565b509392505050565b600082601f830112610717576107166105ea565b5b81356107278482602086016106c0565b91505092915050565b60008115159050919050565b61074581610730565b811461075057600080fd5b50565b6000813590506107628161073c565b92915050565b6000806040838503121561077f5761077e6105e0565b5b600083013567ffffffffffffffff81111561079d5761079c6105e5565b5b6107a985828601610702565b92505060206107ba85828601610753565b9150509250929050565b600081519050919050565b600082825260208201905092915050565b6000819050602082019050919050565b6000819050919050565b610803816107f0565b82525050565b600081519050919050565b600082825260208201905092915050565b60005b83811015610843578082015181840152602081019050610828565b60008484015250505050565b600061085a82610809565b6108648185610814565b9350610874818560208601610825565b61087d816105f4565b840191505092915050565b61089181610730565b82525050565b60006060830160008301516108af60008601826107fa565b50602083015184820360208601526108c7828261084f565b91505060408301516108dc6040860182610888565b508091505092915050565b60006108f38383610897565b905092915050565b6000602082019050919050565b6000610913826107c4565b61091d81856107cf565b93508360208202850161092f856107e0565b8060005b8581101561096b578484038952815161094c85826108e7565b9450610957836108fb565b925060208a01995050600181019050610933565b50829750879550505050505092915050565b600060208201905081810360008301526109978184610908565b905092915050565b6109a8816107f0565b81146109b357600080fd5b50565b6000813590506109c58161099f565b92915050565b600080604083850312156109e2576109e16105e0565b5b60006109f0858286016109b6565b9250506020610a0185828601610753565b9150509250929050565b7f4e487b7100000000000000000000000000000000000000000000000000000000600052602260045260246000fd5b60006002820490506001821680610a5257607f821691505b602082108103610a6557610a64610a0b565b5b50919050565b60008190508160005260206000209050919050565b60006020601f8301049050919050565b60008160020a8302905092915050565b600060088302610ad07fffffffffffffffffffffffffffffffffffffffffffffffffffffffffffffffff82610a90565b610ada8683610a90565b95508019841693508086168417925050509392505050565b6000819050919050565b6000610b17610b12610b0d846107f0565b610af2565b6107f0565b9050919050565b6000819050919050565b610b3183610afc565b610b45610b3d82610b1e565b848454610aa0565b825550505050565b600090565b610b5a610b4d565b610b65818484610b28565b505050565b5b81811015610b8957610b7e600082610b52565b600181019050610b6b565b5050565b601f821115610bce57610b9f81610a6b565b610ba884610a80565b81016020851015610bb7578190505b610bcb610bc385610a80565b830182610b6a565b50505b505050565b60008160020a8304905092915050565b6000610bf460001984600802610bd3565b1980831691505092915050565b6000610c0d8383610be3565b9150826002028217905092915050565b610c2682610809565b67ffffffffffffffff811115610c3f57610c3e610605565b5b610c498254610a3a565b610c54828285610b8d565b600060209050601f831160018114610c875760008415610c75578287015190505b610c7f8582610c01565b865550610ce7565b601f198416610c9586610a6b565b60005b82811015610cbd57848901518255600182019150602085019450602081019050610c98565b86831015610cda5784890151610cd6601f891682610be3565b8355505b6001600288020188555050505b505050505050565b600073ffffffffffffffffffffffffffffffffffffffff82169050919050565b6000610d1a82610cef565b9050919050565b610d2a81610d0f565b82525050565b610d39816107f0565b82525050565b6000604082019050610d546000830185610d21565b610d616020830184610d30565b9392505050565b7f4e487b7100000000000000000000000000000000000000000000000000000000600052603260045260246000fd5b7f4e487b7100000000000000000000000000000000000000000000000000000000600052601160045260246000fd5b6000610dd1826107f0565b91507fffffffffffffffffffffffffffffffffffffffffffffffffffffffffffffffff8203610e0357610e02610d97565b5b600182019050919050565b610e1781610730565b82525050565b6000604082019050610e326000830185610d30565b610e3f6020830184610e0e565b939250505056fea2646970667358221220c88d0f9d4ddabff1b71c8edcff927e8873c94fb0a89709a72456cc72bae9ed0964736f6c63430008100033",
  "immutableReferences": {},
  "source": "// SPDX-License-Identifier: MIT\npragma solidity >=0.4.22 <0.9.0;\n\ncontract TaskContract {\n  event AddTask(address recipient,uint taskId);\n  event DeleteTask(uint taskId,bool isDeleted);\n\n  struct Task {\n    uint id;\n    string taskText;\n    bool isDeleted;\n  }\n\n  Task[] private tasks;\n  mapping(uint256 => address) taskToOwner;\n\n  function addTask(string memory taskText, bool isDeleted) \n  external {\n      uint taskId = tasks.length;\n      tasks.push(Task(taskId,taskText,isDeleted));\n      taskToOwner[taskId] = msg.sender;\n      emit AddTask(msg.sender, taskId);\n  }\n\n  function getMyTasks() external view returns (Task[] memory) {\n      Task[] memory temporary = new Task[](tasks.length);\n      uint counter = 0;\n\n      for(uint i=0; i<tasks.length;i++)\n      {\n        if(taskToOwner[i] == msg.sender && tasks[i].isDeleted == false){\n          temporary[counter] = tasks[i];\n          counter++;\n        }\n      }\n\n      Task[] memory result = new Task[](counter);\n      for(uint i = 0;i<counter;i++){\n        result[i] = temporary[i];\n      }\n      return result;\n  }\n\n  function deleteTask(uint taskId,bool isDeleted) external {\n    if(taskToOwner[taskId] == msg.sender) {\n      tasks[taskId].isDeleted = isDeleted;\n      emit DeleteTask(taskId, isDeleted);\n    }\n  }\n}\n",
  "sourcePath": "R:\\Web3.0\\Todo list solidity\\backend\\contracts\\TaskContract.sol",
  "compiler": {
    "name": "solc",
    "version": "0.8.16+commit.07a7930e.Emscripten.clang"
  },
  "schemaVersion": "3.4.9",
  "updatedAt": "2022-08-29T08:26:26.863Z",
  "networkType": "ethereum",
  "devdoc": {
    "kind": "dev",
    "methods": {},
    "version": 1
  },
  "userdoc": {
    "kind": "user",
    "methods": {},
    "version": 1
  }
}